:100000004CC079C265C064C063C062C061C060C0DA
:100010005FC05EC05DC05CC05BC05AC059C0050116
:100020000906A101050719E029E715002501750159
:1000300095088102950175088103950675081500DC
:10004000250403090412034E006100720065006E6E
:10005000006400720061000E034800490044004B38
:1000600000650079001201100100000008C016DFD1
:100070000500010102000109022200010100A03275
:10008000090400000103010100092101010001220E
:1000900023000705810308000A0011241FBECFE5D5
:1000A000D2E0DEBFCDBF10E0A0E6B0E0E6EBF7E0C7
:1000B00002C005900D92A837B107D9F710E0A8E764
:1000C000B0E001C01D92A83BB107E1F7A0D071C319
:1000D00097CFFC01808180768032E1F4818181308C
:1000E00041F488E790E090939D0080939C0088E025
:1000F0000895823041F480E890E090939D008093D1
:100100009C0081E008958A3029F4838180938000E7
:1001100080E0089580E0089590E04CE951E013C03C
:10012000C29A28EE33E0FA013197F1F721503040BE
:10013000D1F7C29828EE33E0FA013197F1F7215058
:100140003040D1F79F5F981758F308950F931F938E
:10015000182F062F01C090D080918C0084FFFBCF18
:10016000109378001092790000937A0088E790E06D
:1001700068E086D101C080D080918C0084FFFBCFE5
:100180001092780010927A0088E790E068E078D1C9
:1001900084EF91E02CE931E0F9013197F1F7019713
:1001A000D9F71F910F9108950F931F93CF93DF936A
:1001B000EC010CE911E01FC0862F81568A3118F43A
:1001C0006D5580E00EC0862F81548A3118F46D532E
:1001D00082E007C0603211F46CE212C06A3019F498
:1001E0000EC06111B3DF88EC90E0F8013197F1F7B0
:1001F0000197D9F7219668816623F1F603C068E27A
:1002000080E0F0CFDF91CF911F910F9108951F9360
:10021000CF93DF93BA9AC29822D0BC9A88EB9BE026
:100220002CE931E0F9013197F1F70197D9F7BC9842
:10023000789483E071DF10E0CCE9D1E01DD0112388
:10024000E9F780E29EE4FE013197F1F70197D9F7D3
:1002500080E690E0A9DF82E05FDF11E0EFCF85B7B5
:10026000836085BF8BB780648BBF8BE480938D00E8
:100270008AE580938C0008951F93CF93DF9390912C
:100280009E00935097FDA1C020919B0080919A0001
:100290008D3209F098C0983009F095C0CCE0D0E0DC
:1002A000C21BD109CE55DF4F83EC809381008AE5D4
:1002B00080937500109299008881807621F0CE019C
:1002C00008DF282F77C09A8110928A0089818823BD
:1002D00021F410928B0022E067C0853019F49093CE
:1002E0009F0061C0863009F04AC08B81813019F4CB
:1002F00085E690E01BC0823041F487E790E0909360
:100300009D0080939C0022E236C08330F9F48A81FC
:10031000882341F481E490E090939D0080939C00B9
:1003200024E029C0813041F485E490E090939D0061
:1003300080939C0022E11FC08230E1F487E590E0C9
:1003400090939D0080939C002EE015C0813241F473
:1003500089E890E090939D0080939C0029E00BC079
:10036000823241F48EE190E090939D0080939C0056
:1003700023E201C020E080E4809399001BC0883014
:1003800021F421E081EA90E011C0893019F49093C2
:10039000A10009C08A3011F421E006C08B3019F4A5
:1003A0008BE480938D0020E08AE890E090939D009C
:1003B00080939C008F81882321F48E81821708F41A
:1003C000282F2093760010929E008091750084FF64
:1003D00049C0809176008F3F09F444C0182F8930BE
:1003E00008F018E0811B809376008091810098E8E6
:1003F000892780938100112341F120919C00309145
:100400009D008091990086FF0DC0A2E8B0E080E0D9
:1004100090E0F901E80FF91FE491ED9301961817A8
:10042000C1F708C0912FD901E2E8F0E08D918193E6
:100430009150E1F71150812F90E01F5F0196820FDC
:10044000931F90939D0080939C0082E890E0612F21
:100450004ED0612F6C5F6C3019F08FEF8093760077
:100460006093750094E186B3887131F49150D9F7A7
:1004700010929F0010929800DF91CF911F910895E4
:100480001F93DC01162F80918C0084FF07C08091A0
:100490008D0098E8892780938D0003C08AE58093BA
:1004A0008C00912FEEE8F0E08D9181939150191618
:1004B000DCF38EE890E0612F1AD01C5F10938C0063
:1004C0001F910895A82FB92F80E090E041E050EAF5
:1004D000609530E009C02D9182279795879510F09F
:1004E00084279527305EC8F36F5FA8F30895EADF8D
:1004F0008D939D930895CF93CFB7CF93C395B49B1E
:10050000E9F7B49B0BC0B49B09C0B49B07C0B49B74
:1005100005C0B49B03C0B49B01C0D5C00F92DF934C
:10052000C0919B00DD27CE55DF4F012EB49B03C049
:10053000DF910F90E6CF2F930F931F934F932FEFE1
:100540004F6F06B304FB20F95F933F9350E03BE00D
:1005500065C016B30126502954FDC89556B301272E
:1005600004FB25F92F7306B3B1F05027102714FBB5
:1005700026F906B22230F0F000C016B3012704FBC2
:1005800027F90126502906B22430E8F54F77206874
:1005900016B30000F6CF50274F7D206206B2102F11
:1005A000000000C006B300265029102714FB26F9CE
:1005B00006B2E2CF4F7B06B3206400C0DACF01263B
:1005C0005029187106B269F14E7F2160012F16B3D0
:1005D00028C0002650294D7F06B22260102F29C066
:1005E000012650294B7F06B22460012F2DC016B37F
:1005F00001265029477F2860000006B22EC04F7E9A
:1006000006B3206130C0422706B349930026502923
:10061000102706B24FEF14FB20F9297F16B379F2A9
:10062000187159F10126502906B2012704FB21F95E
:10063000237F06B371F2002650293150D0F006B264
:10064000102714FB22F9277E16B351F201265029F8
:10065000012704FB06B223F92F7C49F2000006B300
:10066000102714FB24F90026502906B22F7939F2FD
:1006700070CF10E41ABF002719C03B503195C31B3F
:10068000D04010E41ABF0881033C09F10B34F9F0A3
:10069000209198001981110F1213EDCF4A81441F48
:1006A000093651F10D3211F0013E29F70093A000F7
:1006B0003F915F914F911F910F912F91DF910F907B
:1006C000CAB7C6FD1BCFCF91CFBFCF911895209150
:1006D000A000222369F310919E00112379F5343094
:1006E0007AF130939E0020939A0010919B003BE09A
:1006F000311B30939B0024C000919E000130F4F424
:100700000AE54F7049F43091750034FD1AC000932A
:100710007500C1E8D0E019C030918C0034FD11C0E3
:1007200000938C00CDE8D0E010C0052710E000C099
:1007300021C0052710E0C89508BB14C03AE501C0E8
:1007400032ED032EC0E0D0E032E017B31861C49A56
:1007500008B317BB58E120E84FEF20FF052708BB7F
:10076000279517951C3F28F700004552B0F720FF4A
:100770000527279508BB17951C3FB8F629913A9590
:1007800061F7077E10919F00110F08BBC250D04047
:1007900011F01093980010E41ABF006117B3177E90
:1007A000402F477E54E05A95F1F708BB17BB48BB72
:0607B0007FCFF894FFCF9B
:1007B60048656C6C6F2066726F6D20415474696E6B
:0807C6007938350A005AFF00E2
:00000001FF
