:1000000054C06EC071C36CC06BC06AC069C068C0A8
:1000100067C066C065C064C063C062C061C00501DE
:100020000906A101050719E029E715002501750159
:1000300095088102950175088103950675081500DC
:1000400025650507190029658100C004030904120C
:10005000034E006100720065006E00640072006172
:100060000014033600390073004800490044004B77
:1000700000650079001201100100000008C016DBC5
:100080002700010102000109022200010100A03243
:1000900009040000010301010009210101000122FE
:1000A0002D000705810308000A0011241FBECFE5BB
:1000B000D2E0DEBFCDBF10E0A0E6B0E0E8EAF9E0B4
:1000C00002C005900D92AC38B107D9F710E0ACE84A
:1000D000B0E001C01D92AF3CB107E1F762D162C44C
:1000E0008FCFFC01808180768032E1F48181813084
:1000F00041F48FE890E09093B4008093B30088E0DF
:100100000895823041F487E990E09093B4008093A1
:10011000B30081E008958A3029F4838180939700A9
:1001200080E0089580E00895C2980895DF92EF92EC
:10013000FF920F931F93CF93DF938C01C0E0D0E029
:100140009DE1E92E90E1F92E84E0D82E1BC07AD1F2
:10015000C7010197F1F780918C00882391F080917D
:100160008D0090918E00019690938E0080938D006B
:10017000C29738F088B38D2588BB10928E001092FC
:100180008D002196C017D10710F3DF91CF911F91F9
:100190000F91FF90EF90DF9008950F931F93CF93EF
:1001A000DF93082FEB0110928C0010E007C0C29A79
:1001B000CE01BCDFC298CE01B9DF1F5F1017B8F3C4
:1001C000DF91CF911F910F9108950F931F93CF93BC
:1001D000DF93182F062FC1E9D0E504C033D1CE013B
:1001E0000197F1F78091A30084FFF8CFEFE8F0E0EA
:1001F00088E0DF011D928A95E9F710938F00009344
:100200009100CF0168E022D2C1E9D0E504C01AD143
:10021000CE010197F1F78091A30084FFF8CFEFE8BA
:10022000F0E088E0DF011D928A95E9F7CF0168E0F0
:100230000DD28CE291E02CE931E0F9013197F1F730
:100240000197D9F7DF91CF911F910F9108950F93E7
:100250001F93CF93DF93EC010CE911E03AC0862F96
:1002600081568A3110F46D550CC0862F81548A3125
:1002700018F46D5382E023C0862F8153893018F41F
:10028000635180E01CC0603311F467E20FC060323C
:1002900011F46CE20BC06A3011F468E207C06E32F0
:1002A00011F467E303C06F3219F468E380E008C01B
:1002B0006A3311F463E313C0633219F40FC06111A0
:1002C00084DF88EC90E0F8013197F1F70197D9F7D6
:1002D00021966881662309F0C2CF03C060E282E004
:1002E000EFCFDF91CF911F910F910895CF93DF93BF
:1002F000C1E9D0E504C0A6D0CE010197F1F7809105
:10030000A30084FFF8CFEFE8F0E088E0DF011D9262
:100310008A95E9F7CF0168E099D1DF91CF910895EF
:10032000EF92FF920F931F93CF93DF9320E8F22E6B
:1003300000E0C0E0D0E0102F1F0D11BFC2D19C0122
:1003400089E0243338070CF0102FF6942196C8303A
:10035000D10511F0012FEFCF115011BF1F5F7901AF
:10036000C12FD0E0219610C0ACD18453994097FFA3
:1003700003C0909581959F4F8E159F0514F411B77A
:100380007C0181B78F5F81BF81B790E0C817D90723
:100390005CF711BFDF91CF911F910F91FF90EF900C
:1003A0000895BA9AC298F894BB9A8AEF90E0BEDE9C
:1003B000BB983DD0B5DF789499DF82E062E370E0CE
:1003C000ECDE84E690E0B2DE91DF81E080938C0089
:1003D00010928E0010928D0085E090E0A7DE88E0FC
:1003E00065E1F3DE84E690E0A1DE80E690E02FDFB9
:1003F00084E690E09BDE80E068E2E7DE80E991E061
:1004000095DE84E690E023DF84E690E08FDE80E0F6
:1004100068E2DBDE80E293E089DE10928C00C29815
:1004200085E064E873E0B9DEC2980CD0FECFAC9AE8
:100430008BB780628BBF8BE48093A4008AE58093A6
:10044000A30008951F93CF93DF939091B50093502D
:1004500097FDA1C02091B2008091B1008D3209F0CA
:1004600098C0983009F095C0CCE0D0E0C21BD1090B
:10047000C754DF4F83EC809398008AE5809389000E
:100480001092B0008881807621F0CE012ADE282FDC
:1004900077C09A811092A1008981882321F410925B
:1004A000A20022E067C0853019F49093B60061C0C5
:1004B000863009F04AC08B81813019F485E790E0DD
:1004C0001BC0823041F487E890E09093B4008093A1
:1004D000B30022E236C08330F9F48A81882341F4E4
:1004E0008BE490E09093B4008093B30024E029C0A3
:1004F000813041F48FE490E09093B4008093B30096
:1005000022E11FC08230E1F481E690E09093B400D4
:100510008093B30024E115C0813241F489E990E071
:100520009093B4008093B30029E00BC0823241F471
:100530008EE190E09093B4008093B3002DE201C06F
:1005400020E080E48093B0001BC0883021F421E0DB
:1005500088EB90E011C0893019F49093B80009C07D
:100560008A3011F421E006C08B3019F48BE48093BB
:10057000A40020E081EA90E09093B4008093B3005F
:100580008F81882321F48E81821708F4282F2093ED
:100590008A001092B5008091890084FF49C0809143
:1005A0008A008F3F09F444C0182F893008F018E002
:1005B000811B80938A008091980098E88927809316
:1005C0009800112341F12091B3003091B400809143
:1005D000B00086FF0DC0A9E9B0E080E090E0F9012D
:1005E000E80FF91FE491ED9301961817C1F708C0C1
:1005F000912FD901E9E9F0E08D9181939150E1F7D4
:100600001150812F90E01F5F0196820F931F9093EE
:10061000B4008093B30089E990E0612F4ED0612F40
:100620006C5F6C3019F08FEF80938A0060938900C3
:1006300094E186B3887131F49150D9F71092B600E5
:100640001092AF00DF91CF911F9108951F93DC01AD
:10065000162F8091A30084FF07C08091A40098E822
:1006600089278093A40003C08AE58093A300912F7B
:10067000E5EAF0E08D91819391501916DCF385EA5B
:1006800090E0612F1AD01C5F1093A3001F91089572
:10069000A82FB92F80E090E041E050EA609530E06B
:1006A00009C02D9182279795879510F0842795276B
:1006B000305EC8F36F5FA8F30895EADF8D939D93D2
:1006C0000895A6E088279927AA9569F00197E1F394
:1006D000B399FCCFB39BFECF81E09927A6B30196D7
:1006E00011F0A871D9F70895CF93CFB7CF93C395E1
:1006F000B39BE9F7B39B0BC0B39B09C0B39B07C087
:10070000B39B05C0B39B03C0B39B01C0D5C00F9280
:10071000DF93C091B200DD27C754DF4F012EB39B9A
:1007200003C0DF910F90E6CF2F930F931F934F934A
:100730002FEF4F6F06B303FB20F95F933F9350E019
:100740003BE065C016B30126502953FDC89556B34A
:10075000012703FB25F92F7306B3B1F050271027AB
:1007600013FB26F906B22230F0F000C016B30127C1
:1007700003FB27F90126502906B22430E8F54F770C
:10078000206816B30000F6CF50274F7D206206B2D6
:10079000102F000000C006B300265029102713FBBD
:1007A00026F906B2E2CF4F7B06B3206400C0DACF51
:1007B00001265029187106B269F14E7F2160012F80
:1007C00016B328C0002650294D7F06B22260102F94
:1007D00029C0012650294B7F06B22460012F2DC06D
:1007E00016B301265029477F2860000006B22EC0AC
:1007F0004F7E06B3206130C0422706B349930026DE
:100800005029102706B24FEF13FB20F9297F16B3AA
:1008100079F2187159F10126502906B2012703FB1C
:1008200021F9237F06B371F2002650293150D0F010
:1008300006B2102713FB22F9277E16B351F20126C8
:100840005029012703FB06B223F92F7C49F200004F
:1008500006B3102713FB24F90026502906B22F797E
:1008600039F270CF10E21ABF002719C03B50319502
:10087000C31BD04010E21ABF0881033C09F10B34BE
:10088000F9F02091AF001981110F1213EDCF4A81B9
:10089000441F093651F10D3211F0013E29F7009342
:1008A000B7003F915F914F911F910F912F91DF9171
:1008B0000F90CAB7C5FD1BCFCF91CFBFCF91189571
:1008C0002091B700222369F31091B500112379F527
:1008D00034307AF13093B5002093B1001091B2001A
:1008E0003BE0311B3093B20024C00091B5000130D1
:1008F000F4F40AE54F7049F43091890034FD1AC0D0
:1009000000938900C8E9D0E019C03091A30034FDFC
:1009100011C00093A300C4EAD0E010C0052710E086
:1009200000C021C0052710E0C89508BB14C03AE5F7
:1009300001C032ED032EC0E0D0E032E017B3186101
:10094000C39A08B317BB58E120E84FEF20FF0527F3
:1009500008BB279517951C3F28F700004552B0F7B4
:1009600020FF0527279508BB17951C3FB8F629914E
:100970003A9561F7077E1091B600110F08BBC2507F
:10098000D04011F01093AF0010E21ABF086017B307
:10099000177E402F477E54E05A95F1F708BB17BBEE
:0809A00048BB7FCFF894FFCFA4
:1009A800636D64004649524D5741524520444553B2
:1009B80049474E204259204E4152454E445241200B
:0C09C8005341474F4C53454D005AFF006F
:00000001FF
